S018000044435F4D6F746F725F436F6E74726F6C2E73726563D5
S11300000C94BA000C944F020C94D7000C94D700B3
S11300100C94D7000C94D7000C94D7000C94D70000
S11300200C94D7000C94D7000C94D7000C94D700F0
S11300300C94D7000C946F020C9497020C94D70084
S11300400C94BA010C94D7000C94D7000C94D700EC
S11300500C94D7000C94D7000C94D7000C94D700C0
S11300600C94D7000C94D7000C94D7000C94D700B0
S11300700C94D7000C94D7000C94D7000C94D700A0
S11300800C94D7000C94D7000C94D7000C94D70090
S11300900C94D7000C94D7000C94D7000C94D70080
S11300A00C94D7000C94D7000C94D7000C94D70070
S11300B00C94D7000C94D7000C94D7000C94D70060
S11300C00C94D7000C94D7000C94D700AE08B60853
S11300D0B608B608B608B608B608B608B608B6082C
S11300E0B608B608B608B608B608B608B608B6081C
S11300F0B608B608B608B608B608B608B608B6080C
S1130100B608B608B60864087807AE07B6088408C7
S1130110B608B608B608B608B608B608B608B608EB
S1130120B608B608B608B6089D08B608F907B608B2
S1130130B6082C08B608B608B608B608B608B60855
S1130140B608B608B608470878078707B6088408CB
S1130150B608B608B608B608B608B608B608B608AB
S1130160B608B608B608B6089D08B608E107B6088A
S1130170B608140811241FBECFEFD8E0DEBFCDBFF0
S113018013E0A0E0B1E0EAE0F8E102C005900D92CE
S1130190A032B107D9F723E0A0E2B3E001C01D9279
S11301A0AD32B207E1F70E948A030C94030C0C945D
S11301B00000CF93DF93CDB7DEB789EB90E0FC016D
S11301C01082000088EB90E028E4FC0120838CEB93
S11301D090E024E0FC0120830000DF91CF9108959A
S11301E0CF93DF9300D01F92CDB7DEB78B838CEB18
S11301F090E024EAFC01208380E491E09A838983DF
S11302000FC089819A8101979A83898389819A8110
S1130210892B31F480912A03816080932A0332C0B0
S11302208CEB90E0FC018081882324F089819A8101
S1130230892B39F78BEB90E02B81FC0120838CEB2D
S113024090E024E8FC01208380E491E09A83898390
S11302500FC089819A8101979A83898389819A81C0
S1130260892B31F480912A03826080932A030AC087
S11302708CEB90E0FC018081882324F089819A81B1
S1130280892B39F70F900F900F90DF91CF9108953C
S1130290CF93DF93CDB7DEB78CEB90E024E9FC017C
S11302A020830000DF91CF910895CF93DF9300D096
S11302B01F92CDB7DEB78B838BEB90E02B81FC01D3
S11302C020838CEB90E024E8FC01208380E491E01F
S11302D09A8389830FC089819A8101979A8389833C
S11302E089819A81892B31F480912A0384608093D7
S11302F02A030AC08CEB90E0FC018081882324F05F
S113030089819A81892B39F70F900F900F90DF9193
S1130310CF910895CF93DF93CDB7DEB70E94D90074
S11303200000DF91CF910895CF93DF931F92CDB753
S1130330DEB7898389810E94F00000000F90DF916D
S1130340CF910895CF93DF931F92CDB7DEB7898302
S113035089810E94550100000F90DF91CF9108958B
S1130360CF93DF93CDB7DEB70E9448010000DF9141
S1130370CF9108951F920F9200905F000F92112465
S1130380CF92DF92EF92FF922F933F934F935F931D
S11303906F937F938F939F93AF93BF93EF93FF9349
S11303A0CF93DF9300D0CDB7DEB780912403909133
S11303B025030196909325038093240382E090E023
S11303C09A8389838091240390912503883C910525
S11303D00CF44AC08091260390912703092E000C47
S11303E0AA0BBB0BBC01CD010E94B90ADC01CB01F5
S11303F027E137EB41E550E4BC01CD010E940F0A2F
S1130400DC01CB0120E030E040E752E4BC01CD0147
S11304100E946E0BDC01CB016C017D0189819A8104
S1130420092E000CAA0BBB0BBC01CD010E94B90A1A
S1130430DC01CB019C01AD01C701B6010E940F0A8A
S1130440DC01CB01BC01CD010E94810ADC01CB019E
S11304509093290380932803109227031092260374
S1130460109225031092240300000F900F90DF9147
S1130470CF91FF91EF91BF91AF919F918F917F9118
S11304806F915F914F913F912F91FF90EF90DF908B
S1130490CF900F9000925F000F901F9018951F92BD
S11304A00F9200905F000F9211248F939F93CF932C
S11304B0DF93CDB7DEB78091260390912703019691
S11304C090932703809326030000DF91CF919F919F
S11304D08F910F9000925F000F901F9018951F92BC
S11304E00F9200905F000F9211242F933F938F93EC
S11304F09F93EF93FF93CF93DF93CDB7DEB78EE255
S113050090E02EE230E0F90120812B7FFC01208372
S11305100000DF91CF91FF91EF919F918F913F91D7
S11305202F910F9000925F000F901F9018951F92CB
S11305300F9200905F000F9211242F933F938F939B
S11305409F93EF93FF93CF93DF93CDB7DEB78EE204
S113055090E02EE230E0F90120812460FC01208348
S11305600000DF91CF91FF91EF919F918F913F9187
S11305702F910F9000925F000F901F901895CF93CA
S1130580DF93CDB7DEB760E080E00E942E0980E003
S113059091E0892F8F9380E091E08F930E9415075B
S11305A00F900F9060E081E00E942E098CE091E0B2
S11305B0892F8F938CE091E08F930E9415070F9001
S11305C00F9060E083E00E942E098BE191E0892F77
S11305D08F938BE191E08F930E9415070F900F90FA
S11305E08091220390912303092E000CAA0BBB0BCC
S11305F022E0AC01BD018AE00E94BE0560E084E017
S11306000E942E0989E291E0892F8F9389E291E07B
S11306108F930E9415070F900F9080912003882FCD
S113062090E0A0E0B0E023E0AC01BD018AE00E94CC
S1130630BE0560E085E00E942E0987E391E0892FE2
S11306408F9387E391E08F930E9415070F900F908B
S11306508091280390912903092E000CAA0BBB0B4F
S113066025E0AC01BD018AE00E94BE050000DF91D7
S1130670CF910895CF93DF931F92CDB7DEB783E276
S113068090E0FC018081807F8983998180EF8927B4
S113069089839091210389819817B9F18981882FE1
S11306A090E080729927892B79F0809122039091B0
S11306B023030A974CF4809122039091230301961B
S11306C090932303809322038981882384F4809167
S11306D0220390912303181619064CF480912203E7
S11306E09091230301979093230380932203809195
S11306F0220390912303880F982F990F990F890F44
S11307008093200389818093210300000F90DF915F
S1130710CF910895CF92DF92EF92FF920F931F93A0
S1130720CF93DF93CDB7DEB72E970FB6F894DEBF25
S11307300FBECDBF0E94FB0480E090E0A0EAB0E4CD
S113074089839A83AB83BC8320E030E04AE755E495
S113075069817A818B819C810E946E0BDC01CB01C3
S11307608D839E83AF83B88720E030E040E85FE369
S11307706D817E818F8198850E940A0A88232CF4DA
S113078081E090E09A8789873FC020E03FEF4FE700
S113079057E46D817E818F8198850E94690B1816BC
S11307A04CF520E030E040E251E469817A818B81AC
S11307B09C810E946E0BDC01CB01BC01CD010E9427
S11307C0880ADC01CB019A8789870FC080E991E010
S11307D09C878B878B859C850197F1F79C878B87FA
S11307E089859A8501979A87898789859A85892B2E
S11307F069F714C06D817E818F8198850E94880A73
S1130800DC01CB019A87898789859A859E878D87A4
S11308108D859E850197F1F79E878D870E94CC0870
S113082084E290E0FC01108285E290E020EAFC0181
S113083020838DE290E02DE230E0F90120812460F4
S1130840FC0120838AE290E02AE230E0F901208171
S11308502B7FFC01208388E890E02FEF3FEFFC0121
S1130860318320838AE890E02FEF3FEFFC0131834E
S1130870208385E890E0FC01108284E890E0FC018C
S1130880108280E890E020E830E0F90120812065C2
S1130890FC01208381E890E021E830E0F901208127
S11308A02160FC01208384E490E024E430E0F90139
S11308B020812260FC01208385E490E025E430E07F
S11308C0F90120812560FC0120838EE690E02EE66C
S11308D030E0F90120812260FC01208387E490E06C
S11308E02FEFFC01208389E690E029E630E0F9014E
S11308F020812260FC0120838DE390E02DE330E031
S1130900F90120812160FC012083789480912203E5
S113091090912303892B51F48FE690E02FE630E089
S1130920F90120812B7FFC01208319C080912203CF
S1130930909123030A9751F48FE690E02FE630E07C
S1130940F90120812D7FFC01208309C08FE690E00E
S11309502FE630E0F90120812660FC01208308E8BD
S113096010E08DEC9CECACECBDE320E03FEF4FE7F6
S113097057E4BC01CD010E946E0BDC01CB016C017C
S11309807D018091220390912303092E000CAA0B70
S1130990BB0BBC01CD010E94B90ADC01CB019C0157
S11309A0AD01C701B6010E946E0BDC01CB016C01E5
S11309B07D0181E090E0092E000CAA0BBB0BBC0169
S11309C0CD010E94B90ADC01CB019C01AD01C70134
S11309D0B6010E940F0ADC01CB01BC01CD010E94CB
S11309E0880ADC01CB01F801918380830E943A03D9
S11309F00E94BF028BCFCF93DF93CDB7DEB70E94A7
S1130A00D9008EEA0E94870985ED0E94870980E853
S1130A100E94870988EA0E9487098FE30E94870958
S1130A2083ED0E94870980E00E94870980E40E9488
S1130A3087098DE80E94870984E10E94870980E282
S1130A400E94870980E00E94870981EA0E94870941
S1130A5088EC0E9487098AED0E94870982E10E943E
S1130A60870981E80E9487098FEC0E94870989ED34
S1130A700E94870981EF0E9487098BED0E948709F4
S1130A8080E40E94870984EA0E94870986EA0E941A
S1130A9087098FEA0E9487090E94CC080000DF9131
S1130AA0CF910895CF93DF9300D01F92CDB7DEB7D7
S1130AB08B83198280912C03882F90E005968038CF
S1130AC091051CF48B818A3011F40E9417098B81E3
S1130AD08A3071F18B8180528B838B81282F30E097
S1130AE08981482F50E0C901880F991F880F991FE9
S1130AF0820F931F840F951F8B5B9E4FFC01808197
S1130B008A838A810E94790980912C038F5F809364
S1130B102C0389818F5F898389818530F1F680E098
S1130B200E94790980912C038F5F80932C0300002D
S1130B3000000F900F900F90DF91CF910895CF9305
S1130B40DF9300D0CDB7DEB79A8389830BC0898148
S1130B509A819C012F5F3F4F3A832983FC01808156
S1130B600E94520589819A81FC018081882379F74A
S1130B7000000F900F90DF91CF910895FF920F9393
S1130B801F93CF93DF93CDB7DEB761970FB6F89479
S1130B90DEBF0FBECDBF8C874D875E876F87788B96
S1130BA0298B19828C85823061F527C08989882F29
S1130BB090E09C012150310981E090E002C0880F4F
S1130BC0991F2A95E2F79C01990F440B550B8D85CB
S1130BD09E85AF85B88982239323A423B52321E07E
S1130BE0892B8A2B8B2B09F420E029838981805D52
S1130BF00E94520589898150898B89898823B1F69D
S1130C00A0C08D859E85AF85B889892B8A2B8B2BB7
S1130C1089F4198206C080E30E94520589818F5F9E
S1130C20898399818989981708F08BC089818A30D2
S1130C3090F387C0198251C08D859E85AF85B88990
S1130C40892B8A2B8B2BA1F18981082F10E0FD843D
S1130C508C85282F30E040E050E08D859E85AF855F
S1130C60B889BC01CD010E94DB0BDA01C901982FC0
S1130C708C85989F802D11242F2D281BCE01029640
S1130C80800F911FFC0120838C85282F30E040E0E9
S1130C9050E08D859E85AF85B889BC01CD010E9449
S1130CA0DB0BDA01C9018D879E87AF87B88B12C031
S1130CB089898F3F09F442C089898B3008F03EC08E
S1130CC08981882F90E09E012E5F3F4F820F931FF2
S1130CD0FC01108289818F5F8983998189899817A2
S1130CE008F4AACF2BC08981882F90E001979E0138
S1130CF02E5F3F4F820F931FFC0180818A3068F082
S1130D008981882F90E001979E012E5F3F4F820FCB
S1130D10931FFC018081895C0CC08981882F90E03D
S1130D2001979E012E5F3F4F820F931FFC0180812C
S1130D30805D0E945205898181508983898188233D
S1130D4091F6000061960FB6F894DEBF0FBECDBFDA
S1130D50DF91CF911F910F91FF900895CF93DF936F
S1130D60CDB7DEB728970FB6F894DEBF0FBECDBF60
S1130D706D837E838F8398876D817E818F81988533
S1130D800E94880ADC01CB0189839A83AB83BC83EC
S1130D9089819A81AB81BC812FEFAC01BD018AE0CE
S1130DA00E94BE058EE20E94520569817A818B8180
S1130DB09C810E94B70ADC01CB019C01AD016D81CD
S1130DC07E818F8198850E949D09DC01CB018D83F2
S1130DD09E83AF83B88720E034E244E759E46D8111
S1130DE07E818F8198850E946E0BDC01CB01BC0152
S1130DF0CD010E94880ADC01CB0189839A83AB83ED
S1130E00BC8389819A81AB81BC812FEFAC01BD0188
S1130E108AE00E94BE05000028960FB6F894DEBF53
S1130E200FBECDBFDF91CF910895CF93DF93CDB7A0
S1130E30DEB768970FB6F894DEBF0FBECDBFCE0104
S1130E404F96988F8F8B8D8D9E8D9A83898393C1B6
S1130E5089819A81FC01808189878985853209F09D
S1130E6082C189819A8101969A83898389819A8131
S1130E70FC01808189878985803300F189858A33E3
S1130E80E8F41A8614C08A85880F982F990F990F51
S1130E90980F8985890F80538A8789819A81019661
S1130EA09A83898389819A81FC01808189878985D4
S1130EB0803338F089858A3330F303C08FEF8A8713
S1130EC001C000008985882F90E0092E000CAA0B30
S1130ED0BB0B45E250E023E530E0841B950B28175B
S1130EE0390708F443C18A599F4FFC010C94FD0B48
S1130EF08F89988D9C012E5F3F4F388F2F8BFC017B
S1130F0080819181898789850E9452052FC18F89AB
S1130F10988D9C012E5F3F4F388F2F8BFC01808171
S1130F2091819C838B838B819C81992354F48B8145
S1130F309C819195819591099C838B838DE20E947C
S1130F4052058B819C81092E000CAA0BBB0B2A85B0
S1130F50AC01BD018AE00E94BE0508C18F89988D4D
S1130F609C012C5F3F4F388F2F8BFC018081918136
S1130F70A281B3818D839E83AF83B8878D819E8147
S1130F80AF81B885BB2394F48D819E81AF81B885F0
S1130F90B095A095909581959F4FAF4FBF4F8D838E
S1130FA09E83AF83B8878DE20E9452058D819E8116
S1130FB0AF81B8852A85AC01BD018AE00E94BE05D7
S1130FC0D5C08F89988D9C012E5F3F4F388F2F8B12
S1130FD0FC01808191819C878B878B859C85CC01CA
S1130FE0A0E0B0E02A85AC01BD018AE00E94BE0504
S1130FF0BDC08F89988D9C012C5F3F4F388F2F8BFC
S1131000FC0180819181A281B3818D879E87AF8706
S1131010B88B8D859E85AF85B8892A85AC01BD01C5
S11310208AE00E94BE05A2C08F89988D9C012E5F24
S11310303F4F388F2F8BFC01808191819C878B8758
S11310408B859C85CC01A0E0B0E02A85AC01BD0174
S113105080E10E94BE058AC08F89988D9C012C5F17
S11310603F4F388F2F8BFC0180819181A281B38106
S11310708D879E87AF87B88B8D859E85AF85B88910
S11310802A85AC01BD0180E10E94BE056FC08F8935
S1131090988D9C012E5F3F4F388F2F8BFC018081F0
S11310A091819C878B878A858F3F11F480E18A87A1
S11310B08B859C85CC01A0E0B0E02A85AC01BD0104
S11310C082E00E94BE0552C08F89988D9C012C5FDE
S11310D03F4F388F2F8BFC0180819181A281B38196
S11310E08D879E87AF87B88B8A858F3F11F480E107
S11310F08A878D859E85AF85B8892A85AC01BD0117
S113110082E00E94BE0532C08F89988D9C012C5FBD
S11311103F4F388F2F8BFC0180819181A281B38155
S1131120898B9A8BAB8BBC8B89899A89AB89BC8957
S1131130BC01CD010E94AE0619C08F89988D9C0117
S11311402E5F3F4F388F2F8BFC01808191819E8BC6
S11311508D8B8D899E890E949F0508C085E20E941F
S11311605205000003C089850E94520589819A8135
S113117001969A83898389819A81FC0180818823DD
S113118009F066CE000068960FB6F894DEBF0FBE75
S1131190CDBFDF91CF910895CF93DF9300D0CDB72A
S11311A0DEB781E20E94870980E00E9487098FE709
S11311B00E94870982E20E94870980E00E948709D1
S11311C087E00E94870988E70E945F0980E40E9403
S11311D079091A82198208C080E00E9479098981FC
S11311E09A8101969A83898389819A818115944091
S11311F09CF381E20E94870980E00E9487098FE7BF
S11312000E94870982E20E94870980E00E94870980
S113121087E00E94870988E70E945F0980E40E94B2
S1131220790900000F900F90DF91CF910895CF932B
S1131230DF93CDB7DEB780912B038F5F80932B03B1
S113124080912B03877080932B0380912B0360E0A4
S11312500E942E090000DF91CF910895CF93DF9370
S113126000D0CDB7DEB789836A838981883008F5D9
S11312708A818823F4F0898180932B038A81809367
S11312802C0381E20E9487098A810E9487098FE7E3
S11312900E94870982E20E94870989810E94870946
S11312A087E00E94870988E70E945F0980E40E9422
S11312B0790900000F900F90DF91CF910895CF939B
S11312C0DF931F92CDB7DEB789830E948A0189819B
S11312D00E94940100000F90DF91CF910895CF9365
S11312E0DF93CDB7DEB70E94B0010000DF91CF914C
S11312F00895CF93DF931F92CDB7DEB78983898199
S11313000E94A20100000F90DF91CF910895CF9326
S1131310DF931F92CDB7DEB7898388E70E945F0908
S113132080E00E94790989810E9479090E946F09ED
S113133000000F90DF91CF9108955058BB27AA2742
S11313400E94B5090C942F0B0E94210B38F00E94C7
S1131350280B20F039F49F3F19F426F40C941E0B4B
S11313600EF4E095E7FB0C94180BE92F0E94400B58
S113137058F3BA17620773078407950720F079F4C6
S1131380A6F50C94620B0EF4E0950B2EBA2FA02D4B
S11313900B01B90190010C01CA01A0011124FF271E
S11313A0591B99F0593F50F4503E68F11A16F04019
S11313B0A22F232F342F4427585FF3CF4695379518
S11313C02795A795F0405395C9F77EF41F16BA0BDD
S11313D0620B730B840BBAF09150A1F0FF0FBB1F8B
S11313E0661F771F881FC2F70EC0BA0F621F731FD4
S11313F0841F48F4879577956795B795F7959E3F31
S113140008F0B0CF9395880F08F09927EE0F9795C1
S1131410879508950E94F40A08F481E008950E94D3
S1131420230A0C942F0B0E94280B58F00E94210BC6
S113143040F029F45F3F29F00C94180B51110C94DF
S1131440630B0C941E0B0E94400B68F39923B1F3B9
S1131450552391F3951B550BBB27AA2762177307D6
S1131460840738F09F5F5F4F220F331F441FAA1F6A
S1131470A9F335D00E2E3AF0E0E832D09150504026
S1131480E695001CCAF72BD0FE2F29D0660F771FD4
S1131490881FBB1F261737074807AB07B0E809F0BA
S11314A0BB0B802DBF01FF2793585F4F3AF09E3F3F
S11314B0510578F00C94180B0C94630B5F3FE4F324
S11314C0983ED4F3869577956795B795F7959F5F82
S11314D0C9F7880F911D9695879597F90895E1E0CE
S11314E0660F771F881FBB1F621773078407BA072D
S11314F020F0621B730B840BBA0BEE1F88F7E09588
S113150008950E94880A6894B1110C94630B08959D
S11315100E94480B88F09F5798F0B92F9927B7512C
S1131520B0F0E1F0660F771F881F991F1AF0BA9583
S1131530C9F714C0B13091F00E94620BB1E0089574
S11315400C94620B672F782F8827B85F39F0B93F66
S1131550CCF3869577956795B395D9F73EF4909536
S11315608095709561957F4F8F4F9F4F0895E894B4
S113157009C097FB3EF490958095709561957F4FD7
S11315808F4F9F4F9923A9F0F92F96E9BB27939585
S1131590F695879577956795B795F111F8CFFAF495
S11315A0BB0F11F460FF1BC06F5F7F4F8F4F9F4FC6
S11315B016C0882311F096E911C0772321F09EE824
S11315C0872F762F05C0662371F096E8862F70E08A
S11315D060E02AF09A95660F771F881FDAF7880F64
S11315E09695879597F90895990F0008550FAA0BBA
S11315F0E0E8FEEF16161706E807F907C0F0121622
S11316001306E407F50798F0621B730B840B950B24
S113161039F40A2661F0232B242B252B21F4089579
S11316200A2609F4A140A6958FEF811D811D089516
S113163097F99F6780E870E060E008959FEF80EC81
S1131640089500240A941616170618060906089524
S113165000240A9412161306140605060895092E8A
S11316600394000C11F4882352F0BB0F40F4BF2BF9
S113167011F460FF04C06F5F7F4F8F4F9F4F089539
S113168057FD9058440F551F59F05F3F71F047952F
S1131690880F97FB991F61F09F3F79F08795089514
S11316A0121613061406551FF2CF4695F1DF08C033
S11316B0161617061806991FF1CF86957105610550
S11316C008940895E894BB2766277727CB0197F9F8
S11316D008950E94F40A08F48FEF08950E94810B84
S11316E00C942F0B0E94210B38F00E94280B20F041
S11316F0952311F00C94180B0C941E0B11240C94CC
S1131700630B0E94400B70F3959FC1F3950F50E05B
S1131710551F629FF001729FBB27F00DB11D639F9F
S1131720AA27F00DB11DAA1F649F6627B00DA11D45
S1131730661F829F2227B00DA11D621F739FB00DEB
S1131740A11D621F839FA00D611D221F749F33275B
S1131750A00D611D231F849F600D211D822F762FF4
S11317606A2F11249F5750409AF0F1F088234AF0D1
S1131770EE0FFF1FBB1F661F771F881F915050403D
S1131780A9F79E3F510580F00C94180B0C94630B41
S11317905F3FE4F3983ED4F3869577956795B795C4
S11317A0F795E7959F5FC1F7FE2B880F911D9695DE
S11317B0879597F90895A1E21A2EAA1BBB1BFD0178
S11317C00DC0AA1FBB1FEE1FFF1FA217B307E4071C
S11317D0F50720F0A21BB30BE40BF50B661F771F74
S11317E0881F991F1A9469F7609570958095909554
S11317F09B01AC01BD01CF010895EE0FFF1F0590C1
S10D1800F491E02D0994F894FFCF51
S113180A436F6C696E2042616B756D004D6F746F26
S113181A7220436F6E74726F6C3A004D6F64653A4E
S113182A2020202020202020004475747920437928
S113183A636C653A20200052504D3A202020202023
S113184A2020202000000000000000002F000000DB
S113185A07000700147F147F14242A7F2A122313F3
S113186A08646236495522500005030000001C2210
S113187A41000041221C0014083E081408083E08CE
S113188A080000A06000080808080800606000005A
S113189A20100804023E5149453E00427F4000425E
S11318AA615149462141454B311814127F1027458D
S11318BA4545393C4A4949300171090503364949C4
S11318CA4936064949291E003636000000563600B4
S11318DA0008142241001414141414004122140898
S11318EA0201510906324959513E7C1211127C7F78
S11318FA494949363E414141227F4141221C7F499F
S113190A4949417F090909013E4149497A7F080841
S113191A087F00417F41002040413F017F08142293
S113192A417F404040407F020C027F7F0408107FC1
S113193A3E4141413E7F090909063E4151215E7FEC
S113194A09192946464949493101017F01013F40A4
S113195A40403F1F2040201F3F4038403F63140847
S113196A146307087008076151494543007F4141E0
S113197A0055AA55AA550041417F000402010204F8
S113198A4040404040000305000020545454787FEE
S113199A484444383844444420384444487F3854FA
S11319AA545418087E09010218A4A4A47C7F0804CC
S11319BA047800447D40004080847D007F102844E0
S11319CA0000417F40007C041804787C08040478F1
S11319DA3844444438FC2424241818242418FC7C4D
S11319EA080404084854545420043F4440203C400A
S11319FA40207C1C2040201C3C4030403C442810A1
S1131A0A28441CA0A0A07C4464544C4400107C824A
S1131A1A000000FF000000827C100000060909068D
S9030000FC
